:100000000C942A000C943F010C9447000C94470078
:100010000C9447000C9447000C9447000C94470044
:100020000C9447000C9447000C9447000C94470034
:100030000C9447000C9447000C9447000C94470024
:100040000C9447000C9447000C9447000C94470014
:100050000C94470011241FBECFE5D8E0DEBFCDBF12
:1000600010E0A0E6B0E0E2E8F3E002C005900D92F7
:10007000A437B107D9F720E0A4E7B0E001C01D9292
:10008000AA37B207E1F70E9456010C94BF010C9405
:10009000000021E030E002C0220F331F6A95E2F732
:1000A000FC013081232B2083089521E030E002C041
:1000B000220F331F6A95E2F72095FC01308123233C
:1000C00020830895FC01208130E0062E02C0359582
:1000D00027950A94E2F720FF10C0E7E8F3E1319793
:1000E000F1F700C00000FC01808190E002C095950E
:1000F00087956A95E2F78170089580E00895CF931F
:10010000DF938FEF8BBBD3E06D2F8BE390E00E94EA
:100110005500C0E06C2F89E390E00E9462008111DD
:1001200010C08D2F90E00397FC01EE0FFF1FE80F2A
:10013000F91FE05AFF4FEC0FF11D8081809377008B
:1001400006C0CF5FC33031F7DF5FD730E9F61092DA
:10015000780087E88BBB8091770090E00E94FE00DA
:1001600080917700833269F48091760080937500E6
:10017000109276001092770081E090E00E94EC00EF
:100180000BC090917600990F292F220F220F920F0A
:100190008053890F80937600DF91CF91089564E0BA
:1001A00088E390E00E94490083E08A95F1F700001F
:1001B00064E088E390E00E94550089EF90E00197A9
:1001C000F1F700C00000089598B3907F8F70892BDD
:1001D00088BB0E94CF000895CF93C82F66E088E3C4
:1001E00090E00E9455008C2F82958F700E94E40051
:1001F0008C2F8F700E94E400CF910895CF93C82F69
:1002000066E088E390E00E9449008C2F82958F7011
:100210000E94E4008C2F8F700E94E400CF9108951B
:1002200087E893E10197F1F700C0000065E088E3FB
:1002300090E00E94550066E088E390E00E9455003F
:1002400083E00E94E40083E00E94E40083E00E94D7
:10025000E40082E00E94E40088E20E94EC008FE06B
:100260000E94EC0081E00E94EC0083EC99E0019791
:10027000F1F700C0000080E80E94EC0008951F9292
:100280000F920FB60F9211248F93809174008111F9
:1002900004C081E08093780003C082E08093740002
:1002A0008F910F900FBE0F901F90189588E78ABB13
:1002B00087E88BBB8FE787BB80E888BB8FE084BB78
:1002C00080EF85BB0E94100166E081E390E00E9410
:1002D000550066E082E390E00E94490066E08BE50D
:1002E00090E00E94490062E085E590E00E944900AC
:1002F00060E085E590E00E94550078948091780058
:1003000081110E947F00809175008823B9F30E94BB
:100310008E01809175008111FACFF0CF81E080933A
:100320007400E0917900F0E0E459FF4F808185BBD3
:1003300080917500882361F080E0E3ECF9E031976B
:10034000F1F700C000008F5F909175008917A8F346
:100350008091790090E0019687709078992324F439
:100360000197886F9F6F0196809379008091740048
:10037000823021F410927500109274000895F89460
:02038000FFCFAD
:100382003132333435363738392A30230103020605
:04039200040C080946
:00000001FF
