S01700004763634170706C69636174696F6E332E7372656359
S11300000C942A000C9437010C9447000C9447007C
S11300100C9447000C9447000C9447000C94470040
S11300200C9447000C9447000C9447000C94470030
S11300300C9447000C9447000C9447000C94470020
S11300400C9447000C9447000C9447000C94470010
S11300500C94470011241FBECFE5D8E0DEBFCDBF0E
S113006010E0A0E6B0E0E8E5F3E002C005900D92F0
S1130070A437B107D9F720E0A4E7B0E001C01D928E
S1130080AA37B207E1F70E944E010C94AA010C941E
S1130090000021E030E001C0220F6A95EAF7FC017C
S11300A03081232B2083089521E030E001C0220F0A
S11300B06A95EAF72095FC01308123232083089573
S11300C0FC01208130E0062E02C0359527950A9464
S11300D0E2F720FF10C0E7E8F3E13197F1F700C041
S11300E00000FC01808190E002C0959587956A9597
S11300F0E2F78170089580E00895CF93DF938FEF46
S11301008BBBC3E06C2F8BE390E00E945400D0E0E3
S11301106D2F89E390E00E946000811111C06C2F63
S113012070E063507109FB01EE0FFF1FE60FF71F2C
S1130130E05AFF4FED0FF11D80818093770006C0D8
S1130140DF5FD33029F7CF5FC730E1F61092780034
S113015087E88BBB8091770090E00E94F800809143
S1130160770090917600833261F490937500109239
S113017076001092770081E090E0DF91CF910C94AB
S1130180E70080532AE0929F800D1124809376002B
S1130190DF91CF91089564E088E390E00E944900E4
S11301A083E08A95F1F7000064E088E390E00E9420
S11301B0540089EF90E00197F1F700C00000089522
S11301C098B3907F8F70892B88BB0C94CB00CF930E
S11301D0C82F66E088E390E00E9454008C2F82953B
S11301E08F700E94E0008C2F8F70CF910C94E000F0
S11301F0CF93C82F66E088E390E00E9449008C2FDB
S113020082958F700E94E0008C2F8F70CF910C9498
S1130210E00087E893E10197F1F700C0000065E092
S113022088E390E00E94540066E088E390E00E9436
S1130230540083E00E94E00083E00E94E00083E039
S11302400E94E00082E00E94E00088E20E94E70051
S11302508FE00E94E70081E00E94E70083EC99E0D0
S11302600197F1F700C0000080E80C94E7001F92AA
S11302700F920FB60F9211248F9380917400811105
S113028004C081E08093780003C082E0809374000E
S11302908F910F900FBE0F901F90189588E78ABB1F
S11302A087E88BBB8FE787BB80E888BB8FE084BB84
S11302B080EF85BB0E94090166E081E390E00E9423
S11302C0540066E082E390E00E94490066E08BE51A
S11302D090E00E94490062E085E590E00E944900B8
S11302E060E085E590E00E94540078948091780065
S11302F081110E947D00809175008823B9F30E94CA
S11303008201F9CF81E080937400E0917900F0E0FC
S1130310E459FF4F808185BB80E090917500891777
S113032040F4E3ECF9E03197F1F700C000008F5F8F
S1130330F4CF8091790090E001968770992780939B
S1130340790080917400823021F41092750010922B
S10B035074000895F894FFCF36
S11303583132333435363738392A3023010302062B
S1070368040C08096C
S9030000FC
